:0400000016EF04F003
:090600000068656C6C6F0A0000D3
:10060A00050E036EDE0EE82EFED7032EFCD7030E70
:10061A00CCEC03F0CD0E00D0E82EFDD7030ECCECC7
:10062A0003F0080EE82EFED700F0030ECCEC03F020
:10063A00080EE82EFED700F0030ECCEC03F0080EED
:10064A00E82EFED700F0020ECCEC03F0080EE82EDE
:10065A00FED700F0080ECCEC03F0080EE82EFED709
:10066A0000F0000ECCEC03F0080EE82EFED700F0E6
:10067A00080ECCEC03F0080EE82EFED700F0000EB0
:10068A00CCEC03F0080EE82EFED700F0010ECCECFD
:10069A0003F0080EE82EFED700F0000ECCEC03F0B3
:1006AA00080EE82EFED700F0060ECCEC03F0080E7A
:1006BA00E82EFED700F0000ECCEC03F0080EE82E70
:1006CA00FED700F00F0ECCEC03F012008A8A29EC58
:1006DA0004F0000E026E070E016E02BE06D0025032
:1006EA000BE1050E015CD8B007D08A8A29EC04F028
:1006FA000106D8A00206F1D729EC04F08982290E56
:10070A00E82EFED700D089928A8A29EC04F0000EDE
:10071A00046E030E036E04BE05D004500AE10304FE
:10072A00D8B007D08A8A29EC04F00306D8A00406B8
:10073A00F2D729EC04F08982290EE82EFED700D0E0
:10074A0089921200000E0A6E000E096E10D009502E
:10075A000524076E0A500620086E07C0F6FF08C077
:10076A00F7FF0800F5506BEC03F0094A0A2A095012
:10077A000524076E0A500620086E07C0F6FF08C057
:10078A00F7FF0800F5500A0AD8B41200E0D7000EA5
:10079A00026E040E016E02BE05D002500AE1010487
:1007AA00D8B007D08A8A29EC04F00106D8A002063C
:1007BA00F2D729EC04F08982080EE82EFED700F061
:1007CA008992120024EC04F005EC03F0020E0C6E80
:1007DA00450E0B6EAA0EE82EFED70B2EFCD70C2E5A
:1007EA00FAD7010E0D6E060E0E6E0DC005F00EC084
:1007FA0006F0A7EC03F0FFD7000E896E000E8A6E92
:10080A00000E8B6EFD0E926EDE0E936E9468FC0ED9
:10081A000F013A6F1E0E396F2D0E386F6168F19E07
:10082A001200000EF86E060EF76E0001E7EF03F0F5
:10083A00300ED36E040ED26E000E9B6E120001ECC7
:10084A0004F01DEC04F012008A8000F08A90120075
:020000040020DA
:08000000FFFFFFFFFFFFFFFF00
:020000040030CA
:0E000000FF281F3CFFBF85FF0FC00FE00F4021
:00000001FF
